{
  "_format": "hh-sol-artifact-1",
  "contractName": "TwitterContract",
  "sourceName": "contracts/TwitterContract.sol",
  "abi": [
    {
      "anonymous": false,
      "inputs": [
        {
          "indexed": false,
          "internalType": "address",
          "name": "recipient",
          "type": "address"
        },
        {
          "indexed": false,
          "internalType": "uint256",
          "name": "tweetId",
          "type": "uint256"
        }
      ],
      "name": "AddTweet",
      "type": "event"
    },
    {
      "anonymous": false,
      "inputs": [
        {
          "indexed": false,
          "internalType": "uint256",
          "name": "tweetId",
          "type": "uint256"
        },
        {
          "indexed": false,
          "internalType": "bool",
          "name": "isDeleted",
          "type": "bool"
        }
      ],
      "name": "DeleteTweet",
      "type": "event"
    },
    {
      "inputs": [
        {
          "internalType": "string",
          "name": "tweetText",
          "type": "string"
        },
        {
          "internalType": "bool",
          "name": "isDeleted",
          "type": "bool"
        }
      ],
      "name": "addTweet",
      "outputs": [],
      "stateMutability": "nonpayable",
      "type": "function"
    },
    {
      "inputs": [
        {
          "internalType": "uint256",
          "name": "tweetId",
          "type": "uint256"
        },
        {
          "internalType": "bool",
          "name": "isDeleted",
          "type": "bool"
        }
      ],
      "name": "deleteTweet",
      "outputs": [],
      "stateMutability": "nonpayable",
      "type": "function"
    },
    {
      "inputs": [],
      "name": "getAllTweets",
      "outputs": [
        {
          "components": [
            {
              "internalType": "uint256",
              "name": "id",
              "type": "uint256"
            },
            {
              "internalType": "address",
              "name": "username",
              "type": "address"
            },
            {
              "internalType": "string",
              "name": "tweetText",
              "type": "string"
            },
            {
              "internalType": "bool",
              "name": "isDeleted",
              "type": "bool"
            }
          ],
          "internalType": "struct TwitterContract.Tweet[]",
          "name": "",
          "type": "tuple[]"
        }
      ],
      "stateMutability": "view",
      "type": "function"
    },
    {
      "inputs": [],
      "name": "getMyTweets",
      "outputs": [
        {
          "components": [
            {
              "internalType": "uint256",
              "name": "id",
              "type": "uint256"
            },
            {
              "internalType": "address",
              "name": "username",
              "type": "address"
            },
            {
              "internalType": "string",
              "name": "tweetText",
              "type": "string"
            },
            {
              "internalType": "bool",
              "name": "isDeleted",
              "type": "bool"
            }
          ],
          "internalType": "struct TwitterContract.Tweet[]",
          "name": "",
          "type": "tuple[]"
        }
      ],
      "stateMutability": "view",
      "type": "function"
    }
  ],
  "bytecode": "0x608060405234801561001057600080fd5b50611090806100206000396000f3fe608060405234801561001057600080fd5b506004361061004c5760003560e01c80635325613514610051578063aefedbc21461006f578063e580339f1461008d578063f0312a37146100a9575b600080fd5b6100596100c5565b6040516100669190610c76565b60405180910390f35b6100776103a6565b6040516100849190610c76565b60405180910390f35b6100a760048036038101906100a29190610e0d565b6106f2565b005b6100c360048036038101906100be9190610e95565b61087f565b005b60606000808054905067ffffffffffffffff8111156100e7576100e6610cb6565b5b60405190808252806020026020018201604052801561012057816020015b61010d610960565b8152602001906001900390816101055790505b5090506000805b6000805490508110156102ec57600015156000828154811061014c5761014b610ed5565b5b906000526020600020906004020160030160009054906101000a900460ff161515036102d9576000818154811061018657610185610ed5565b5b9060005260206000209060040201604051806080016040529081600082015481526020016001820160009054906101000a900473ffffffffffffffffffffffffffffffffffffffff1673ffffffffffffffffffffffffffffffffffffffff1673ffffffffffffffffffffffffffffffffffffffff16815260200160028201805461020f90610f33565b80601f016020809104026020016040519081016040528092919081815260200182805461023b90610f33565b80156102885780601f1061025d57610100808354040283529160200191610288565b820191906000526020600020905b81548152906001019060200180831161026b57829003601f168201915b505050505081526020016003820160009054906101000a900460ff1615151515815250508383815181106102bf576102be610ed5565b5b602002602001018190525081806102d590610f93565b9250505b80806102e490610f93565b915050610127565b5060008167ffffffffffffffff81111561030957610308610cb6565b5b60405190808252806020026020018201604052801561034257816020015b61032f610960565b8152602001906001900390816103275790505b50905060005b8281101561039c5783818151811061036357610362610ed5565b5b602002602001015182828151811061037e5761037d610ed5565b5b6020026020010181905250808061039490610f93565b915050610348565b5080935050505090565b60606000808054905067ffffffffffffffff8111156103c8576103c7610cb6565b5b60405190808252806020026020018201604052801561040157816020015b6103ee610960565b8152602001906001900390816103e65790505b5090506000805b600080549050811015610638573373ffffffffffffffffffffffffffffffffffffffff166001600083815260200190815260200160002060009054906101000a900473ffffffffffffffffffffffffffffffffffffffff1673ffffffffffffffffffffffffffffffffffffffff161480156104b95750600015156000828154811061049657610495610ed5565b5b906000526020600020906004020160030160009054906101000a900460ff161515145b1561062557600081815481106104d2576104d1610ed5565b5b9060005260206000209060040201604051806080016040529081600082015481526020016001820160009054906101000a900473ffffffffffffffffffffffffffffffffffffffff1673ffffffffffffffffffffffffffffffffffffffff1673ffffffffffffffffffffffffffffffffffffffff16815260200160028201805461055b90610f33565b80601f016020809104026020016040519081016040528092919081815260200182805461058790610f33565b80156105d45780601f106105a9576101008083540402835291602001916105d4565b820191906000526020600020905b8154815290600101906020018083116105b757829003601f168201915b505050505081526020016003820160009054906101000a900460ff16151515158152505083838151811061060b5761060a610ed5565b5b6020026020010181905250818061062190610f93565b9250505b808061063090610f93565b915050610408565b5060008167ffffffffffffffff81111561065557610654610cb6565b5b60405190808252806020026020018201604052801561068e57816020015b61067b610960565b8152602001906001900390816106735790505b50905060005b828110156106e8578381815181106106af576106ae610ed5565b5b60200260200101518282815181106106ca576106c9610ed5565b5b602002602001018190525080806106e090610f93565b915050610694565b5080935050505090565b600080805490509050600060405180608001604052808381526020013373ffffffffffffffffffffffffffffffffffffffff16815260200185815260200184151581525090806001815401808255809150506001900390600052602060002090600402016000909190919091506000820151816000015560208201518160010160006101000a81548173ffffffffffffffffffffffffffffffffffffffff021916908373ffffffffffffffffffffffffffffffffffffffff16021790555060408201518160020190805190602001906107cc9291906109a0565b5060608201518160030160006101000a81548160ff0219169083151502179055505050336001600083815260200190815260200160002060006101000a81548173ffffffffffffffffffffffffffffffffffffffff021916908373ffffffffffffffffffffffffffffffffffffffff1602179055507f8b2db9b424f26463510ef5b02c16f2465836b52081b51d2112ec76102053bdea3382604051610872929190610ff9565b60405180910390a1505050565b3373ffffffffffffffffffffffffffffffffffffffff166001600084815260200190815260200160002060009054906101000a900473ffffffffffffffffffffffffffffffffffffffff1673ffffffffffffffffffffffffffffffffffffffff160361095c5780600083815481106108fa576108f9610ed5565b5b906000526020600020906004020160030160006101000a81548160ff0219169083151502179055507f2430f837dd2fb40e08c064be9db3d0cf2a7a21f8fe716a2a41787dafc66a7e2a8282604051610953929190611031565b60405180910390a15b5050565b604051806080016040528060008152602001600073ffffffffffffffffffffffffffffffffffffffff168152602001606081526020016000151581525090565b8280546109ac90610f33565b90600052602060002090601f0160209004810192826109ce5760008555610a15565b82601f106109e757805160ff1916838001178555610a15565b82800160010185558215610a15579182015b82811115610a145782518255916020019190600101906109f9565b5b509050610a229190610a26565b5090565b5b80821115610a3f576000816000905550600101610a27565b5090565b600081519050919050565b600082825260208201905092915050565b6000819050602082019050919050565b6000819050919050565b610a8281610a6f565b82525050565b600073ffffffffffffffffffffffffffffffffffffffff82169050919050565b6000610ab382610a88565b9050919050565b610ac381610aa8565b82525050565b600081519050919050565b600082825260208201905092915050565b60005b83811015610b03578082015181840152602081019050610ae8565b83811115610b12576000848401525b50505050565b6000601f19601f8301169050919050565b6000610b3482610ac9565b610b3e8185610ad4565b9350610b4e818560208601610ae5565b610b5781610b18565b840191505092915050565b60008115159050919050565b610b7781610b62565b82525050565b6000608083016000830151610b956000860182610a79565b506020830151610ba86020860182610aba565b5060408301518482036040860152610bc08282610b29565b9150506060830151610bd56060860182610b6e565b508091505092915050565b6000610bec8383610b7d565b905092915050565b6000602082019050919050565b6000610c0c82610a43565b610c168185610a4e565b935083602082028501610c2885610a5f565b8060005b85811015610c645784840389528151610c458582610be0565b9450610c5083610bf4565b925060208a01995050600181019050610c2c565b50829750879550505050505092915050565b60006020820190508181036000830152610c908184610c01565b905092915050565b6000604051905090565b600080fd5b600080fd5b600080fd5b600080fd5b7f4e487b7100000000000000000000000000000000000000000000000000000000600052604160045260246000fd5b610cee82610b18565b810181811067ffffffffffffffff82111715610d0d57610d0c610cb6565b5b80604052505050565b6000610d20610c98565b9050610d2c8282610ce5565b919050565b600067ffffffffffffffff821115610d4c57610d4b610cb6565b5b610d5582610b18565b9050602081019050919050565b82818337600083830152505050565b6000610d84610d7f84610d31565b610d16565b905082815260208101848484011115610da057610d9f610cb1565b5b610dab848285610d62565b509392505050565b600082601f830112610dc857610dc7610cac565b5b8135610dd8848260208601610d71565b91505092915050565b610dea81610b62565b8114610df557600080fd5b50565b600081359050610e0781610de1565b92915050565b60008060408385031215610e2457610e23610ca2565b5b600083013567ffffffffffffffff811115610e4257610e41610ca7565b5b610e4e85828601610db3565b9250506020610e5f85828601610df8565b9150509250929050565b610e7281610a6f565b8114610e7d57600080fd5b50565b600081359050610e8f81610e69565b92915050565b60008060408385031215610eac57610eab610ca2565b5b6000610eba85828601610e80565b9250506020610ecb85828601610df8565b9150509250929050565b7f4e487b7100000000000000000000000000000000000000000000000000000000600052603260045260246000fd5b7f4e487b7100000000000000000000000000000000000000000000000000000000600052602260045260246000fd5b60006002820490506001821680610f4b57607f821691505b602082108103610f5e57610f5d610f04565b5b50919050565b7f4e487b7100000000000000000000000000000000000000000000000000000000600052601160045260246000fd5b6000610f9e82610a6f565b91507fffffffffffffffffffffffffffffffffffffffffffffffffffffffffffffffff8203610fd057610fcf610f64565b5b600182019050919050565b610fe481610aa8565b82525050565b610ff381610a6f565b82525050565b600060408201905061100e6000830185610fdb565b61101b6020830184610fea565b9392505050565b61102b81610b62565b82525050565b60006040820190506110466000830185610fea565b6110536020830184611022565b939250505056fea26469706673582212202419df534c51463d1407415ef05ede922ea0540764a48397a50da3c60e7acd5a64736f6c634300080d0033",
  "linkReferences": {},
  "deployedLinkReferences": {}
}